:100000000EC01DC01CC01BC01AC019C018C017C02C
:1000100016C015C014C013C012C011C010C01124E6
:100020001FBECFE5D1E0DEBFCDBF20E0A0E6B0E04F
:1000300001C01D92A436B207E1F787D0C4C1E0CF5A
:10004000FC019081862F809598239083ABECB0E0E3
:100050001197F1F700C00000908140FF02C0962B7D
:1000600001C098239083ABECB0E01197F1F700C08A
:100070000000908141FF02C0962B01C0982390831D
:10008000ABECB0E01197F1F700C00000908142FFA7
:1000900002C0962B01C098239083ABECB0E011977F
:1000A000F1F700C00000908143FF02C0962B01C011
:1000B00098239083ABECB0E01197F1F700C00000FB
:1000C000908144FF02C0962B01C098239083ABEC33
:1000D000B0E01197F1F700C00000908145FF02C029
:1000E000962B01C098239083ABECB0E01197F1F709
:1000F00000C00000908146FF02C0962B01C09823EB
:100100009083ABECB0E01197F1F700C0000047FF1F
:1001100003C08081862B02C09081892380838BEC71
:1001200090E00197F1F700C000008081682B6083A8
:10013000ABECB0E01197F1F700C000008BEC90E061
:100140000197F1F700C00000089580E886BD16BC55
:10015000C29ABA9AC398BB9A82E087B987E886B9EF
:1001600041E064E088E390E06BDF8FE19EE401977B
:10017000F1F700C0000042E064E088E390E060DF57
:100180008FE19EE40197F1F700C0000043E064E0D6
:1001900088E390E055DF8FE19EE40197F1F700C01E
:1001A000000044E064E088E390E04ADF87EC90E000
:1001B0000197F1F700C00000C39A92E09A95F1F719
:1001C00000C0369A3699FECF84B18093630085B122
:1001D0008093620087EC90E00197F1F700C0000087
:1001E000C39892E09A95F1F700C0369A3699FECFFF
:1001F00084B18093610085B1809360004091630079
:1002000064E088E390E01CDF8FE19EE40197F1F762
:1002100000C000004091620064E088E390E010DFDD
:100220008FE19EE40197F1F700C00000409161006A
:1002300064E088E390E004DF8FE19EE40197F1F74A
:1002400000C000004091600064E088E390E0F8DEC8
:100250008FE19EE40197F1F700C0000087EC90E089
:100260000197F1F700C00000C39A9AE19A95F1F75F
:1002700000C0369A3699FECF84B18093630085B171
:100280008093620087EC90E00197F1F700C00000D6
:10029000C3989AE19A95F1F700C0369A3699FECF45
:1002A00084B18093610085B18093600040916300C8
:1002B00064E088E390E0C4DE8FE19EE40197F1F70B
:1002C00000C000004091620064E088E390E0B8DE86
:1002D0008FE19EE40197F1F700C0000040916100BA
:1002E00064E088E390E0ACDE8FE19EE40197F1F7F3
:1002F00000C000004091600064E088E390E0A0DE70
:100300008FE19EE40197F1F700C0000087EC90E0D8
:100310000197F1F700C00000C39A87EC90E00197C5
:10032000F1F700C00000369A3699FECF84B1809371
:10033000630085B18093620087EC90E00197F1F74C
:1003400000C00000C39887EC90E00197F1F700C06F
:100350000000369A3699FECF84B18093610085B152
:10036000809360004091630064E088E390E068DE81
:100370008FE19EE40197F1F700C000004091620018
:1003800064E088E390E05CDE8FE19EE40197F1F7A2
:1003900000C000004091610064E088E390E050DE1E
:1003A0008FE19EE40197F1F700C0000040916000EA
:1003B00064E088E390E044DE8FE19EE40197F1F78A
:0A03C00000C00000CDCEF894FFCF7E
:00000001FF
