:1000000010C02AC029C028C027C026C025C024C0CF
:1000100023C022C021C020C01FC01EC01DC01CC0E4
:100020001BC011241FBECFE5D1E0DEBFCDBF10E065
:10003000A0E6B0E0ECE1F1E002C005900D92A2363E
:10004000B107D9F720E0A2E6B0E001C01D92A436C6
:10005000B207E1F702D060C0D3CF80E886BD16BCFE
:10006000D99AD19A82E887B986E886B9D09A369A21
:100070003699FECF24B185B190E0982F8827820F62
:10008000911D2091600030916100281739077CF79D
:100090001092630010926200809162009091630060
:1000A0000A97C4F4DF9A87EB9BE00197F1F700C051
:1000B0000000DF9887E890E90197F1F700C00000A1
:1000C0008091620090916300019690936300809309
:1000D0006200E2CF10926300109262008091620091
:1000E000909163000A97A4F6DF9A8FE99FE0019749
:1000F000F1F700C00000DF9887E890E90197F1F779
:1001000000C000008091620090916300019690937E
:0C011000630080936200E2CFF894FFCF00
:02011C002C01B4
:00000001FF
