:1000000010C017C016C015C014C013C012C011C054
:1000100010C00FC00EC00DC00CC00BC00AC009C07C
:1000200008C011241FBECFE5D1E0DEBFCDBF02D096
:1000300029C0E6CF80E886BD16BCDF98D79A8EE14E
:10004000DF9AE7EBFBE03197F1F700C00000DF98A3
:10005000E7E8F0E93197F1F700C00000815081F73F
:100060008EE1DF9AEFE9FFE03197F1F700C0000081
:10007000DF98E7E8F0E93197F1F700C00000815020
:0800800081F7DDCFF894FFCFFA
:00000001FF
