:1000000010C01FC01EC01DC01CC01BC01AC019C01C
:1000100018C017C016C015C014C013C012C011C03C
:1000200010C011241FBECFE5D1E0DEBFCDBF21E05F
:10003000A0E6B0E001C01D92A932B207E1F787D077
:10004000F6C0DECFFC019081862F809598239083A7
:10005000ABECB0E01197F1F700C00000908140FFD9
:1000600002C0962B01C098239083ABECB0E01197AF
:10007000F1F700C00000908141FF02C0962B01C043
:1000800098239083ABECB0E01197F1F700C000002B
:10009000908142FF02C0962B01C098239083ABEC65
:1000A000B0E01197F1F700C00000908143FF02C05B
:1000B000962B01C098239083ABECB0E01197F1F739
:1000C00000C00000908144FF02C0962B01C098231D
:1000D0009083ABECB0E01197F1F700C00000908185
:1000E00045FF02C0962B01C098239083ABECB0E093
:1000F0001197F1F700C00000908146FF02C0962BD7
:1001000001C098239083ABECB0E01197F1F700C0E9
:10011000000047FF03C08081862B02C090818923A5
:1001200080838BEC90E00197F1F700C000008081A4
:10013000682B6083ABECB0E01197F1F700C00000D2
:100140008BEC90E00197F1F700C00000089580E883
:1001500086BD16BCD99AD19A82E887B986E886B955
:10016000D09A41E062E08BE390E06CDF8FE19EE4A7
:100170000197F1F700C0000042E062E08BE390E0FD
:1001800061DF8FE19EE40197F1F700C0000043E0DA
:1001900062E08BE390E056DF8FE19EE40197F1F798
:1001A00000C0000044E062E08BE390E04BDF8FE1B1
:1001B0009EE40197F1F700C00000109228018091A1
:1001C00028018436A8F4369A3699FECF809128010A
:1001D000282F30E094B1F901EC53FF4F908395B193
:1001E000F901E05AFF4F90838F5F80932801E7CF9A
:1001F00010922801E0912801E43608F0B2CFF0E037
:10020000EC53FF4F408162E08BE390E01BDFE09115
:100210002801F0E0E05AFF4F408162E08BE390E07C
:1002200011DF809128018F5F80932801E3CFF8943C
:02023000FFCFFE
:00000001FF
