:100000000EC015C014C013C012C011C010C00FC064
:100010000EC00DC00CC00BC00AC009C008C011241E
:100020001FBECFE5D1E0DEBFCDBF87D001C1E8CF95
:10003000FC019081862F809598239083ABECB0E0F3
:100040001197F1F700C00000908140FF02C0962B8D
:1000500001C098239083ABECB0E01197F1F700C09A
:100060000000908141FF02C0962B01C0982390832D
:10007000ABECB0E01197F1F700C00000908142FFB7
:1000800002C0962B01C098239083ABECB0E011978F
:10009000F1F700C00000908143FF02C0962B01C021
:1000A00098239083ABECB0E01197F1F700C000000B
:1000B000908144FF02C0962B01C098239083ABEC43
:1000C000B0E01197F1F700C00000908145FF02C039
:1000D000962B01C098239083ABECB0E01197F1F719
:1000E00000C00000908146FF02C0962B01C09823FB
:1000F0009083ABECB0E01197F1F700C0000047FF30
:1001000003C08081862B02C09081892380838BEC81
:1001100090E00197F1F700C000008081682B6083B8
:10012000ABECB0E01197F1F700C000008BEC90E071
:100130000197F1F700C00000089580E886BD16BC65
:10014000C29ABA9AC398BB9A82E087B987E886B9FF
:1001500087EC90E00197F1F700C00000C39A92E0AD
:100160009A95F1F700C0369A3699FECF84B185B1E1
:1001700043E664E088E390E05BDF8FE19EE4019773
:10018000F1F700C0000087EC90E00197F1F700C0A4
:100190000000C39892E09A95F1F700C0369A36991C
:1001A000FECF84B185B187EC90E00197F1F700C0F4
:1001B0000000C39A9AE19A95F1F700C0369A3699F1
:1001C000FECF84B185B187EC90E00197F1F700C0D4
:1001D0000000C3989AE19A95F1F700C0369A3699D3
:1001E000FECF84B185B187EC90E00197F1F700C0B4
:1001F0000000C39A87EC90E00197F1F700C000007F
:10020000369A3699FECF84B185B187EC90E001979C
:10021000F1F700C00000C39887EC90E00197F1F778
:1002200000C00000369A3699FECF84B185B190CFD8
:04023000F894FFCF70
:00000001FF
