:100000002BC074C144C043C042C041C040C03FC0C7
:100010003EC03DC03CC03BC03AC039C038C037C00C
:1000200036C009021200010100801409040000001A
:10003000FF00000012011001FF00000881179F0C53
:100040000401000200010E03460061006200490045
:10005000530050000403090411241FBECFE5D1E072
:10006000DEBFCDBF10E0A0E6B0E0EEEBF7E002C0EF
:1000700005900D92A236B107D9F720E0A2E6B0E0D4
:1000800001C01D92A53AB207E1F77DD396C3B8CF60
:10009000CF93DF9360918B00635067FD9AC080918E
:1000A0008800CCE0D0E0C81BD109C157DF4F809158
:1000B00087008D3209F07CC0683009F088C083EC7D
:1000C00080937B008AE580936100109262008881B2
:1000D000807631F0CE0162D28F3F09F458C05EC005
:1000E0008A81109284009981911106C01092850036
:1000F00024E830E082E046C0953019F480938C000B
:1001000033C0963059F59B81913019F484E390E027
:1001100004C0923041F482E290E090938A00809390
:10012000890082E117C09330A1F4811108C084E5F1
:1001300090E090938A008093890084E00BC0823025
:1001400041F486E490E090938A00809389008EE0E9
:1001500001C080E090E49093620020C0983079F074
:10016000993031F480938E0024E830E080E00AC0BA
:1001700081E09A3009F080E024E830E003C02EE806
:1001800030E081E030938A002093890007C0988195
:1001900097FD8E8190E89093620007C09F81911136
:1001A00004C09E81981708F4892F809360000FC0C7
:1001B0008091620087FF0BC0CE019CD28F3F21F45B
:1001C0008EE18093610003C0811110926000109253
:1001D0008B008091610084FF55C0809160008F3F4B
:1001E00009F450C0C82F893008F0C8E08C1B8093F8
:1001F000600090917B0088E8892780937B00CC2366
:1002000009F44BC02091620027FF08C06C2F8CE7D7
:1002100090E057D2C82F893078F523C080918900AB
:1002200090918A0026FF0AC0ACE7B0E0FC012C2FB9
:1002300034913D9331962150D9F708C0DC01ECE7A9
:10024000F0E02C2F3D9131932150E1F72FEF2C0F4F
:1002500030E02F5F3F4F820F931F90938A0080936F
:1002600089006C2F8CE790E03DD0CC5FCC3041F022
:100270008FEF8093600004C08FEF80936000CEE129
:10028000C093610084E199B3917869F48150D9F702
:1002900010928C001092860006C060E08CE790E01F
:1002A00021D0C4E0E5CFDF91CF91089585B782607A
:1002B00085BF8BB780648BBF0895A82FB92F80E0CE
:1002C00090E041E050EA609530E009C02D9182272E
:1002D0009795879510F084279527305EC8F36F5F58
:1002E000A8F30895EADF8D939D930895CF93CFB738
:1002F000CF93DF93C395C89BE9F7C89B11C0C89BF8
:100300000FC0C89B0DC0C89B0BC0C89B09C0C89B31
:1003100007C0C89B05C0C89B03C0C89B01C081C063
:100320006F93C0918800DD27C157DF4F2F9320E4E2
:1003300000C065E0C89B03C02F916F91DECF0F9383
:100340001F934F9345E55F9355E53F933BE010E8DE
:1003500009B301782EC06A95C9F03150D8F109B3BC
:10036000017801130BC008942795299320E4555573
:1003700000F46A9569F701E069B30BC0102F66E0DD
:100380002695299320E4555518F3E2CF0FEF69B372
:100390000000162F455500F0404066E0117800300F
:1003A000E2F221F0000009B3017803C009B301783B
:1003B000A9F0011309C00894279568F200C06A9556
:1003C000A9F700E069B3E5CF102F66E0269528F283
:1003D0000000ECCF10E41ABF002717C03B50319546
:1003E000C31BD04010E41ABF0881033CF9F00B3462
:1003F000E9F0209186001981110F1213EDCF093613
:1004000051F10D3211F0013E39F700938D003F910B
:100410005F914F911F910F912F916F91CAB7C6FDB8
:1004200069CFDF91CF91CFBFCF91189520918D00EB
:10043000222369F310918B00112329F534302AF11E
:1004400030938B0020938700109188003BE0311B94
:10045000309388001AC000918B000130A4F40AE5A3
:100460003091610034FD12C000936100CBE7D0E011
:1004700011C0052710E000C00BBB19C0052710E014
:10048000221F00C01DC04AE502C032ED432FC4E167
:10049000D0E032E01AB31168D89A0BB31ABB51E816
:1004A00020E869E420FF05270BBB2795179500C0BE
:1004B00000001C3FF0F66695A8F7A1F720FF05277E
:1004C0000BBB2795179500001C3FC0F629913A9564
:1004D00041F70E7710918C00110F0BBBC651D04025
:1004E00011F01093860010E41ABF01601AB31E7752
:1004F000402F4E7755E05A95F1F70BBB1ABB4BBB1B
:1005000086CFFC01DB01AC014C5F5F4F619128E0BD
:1005100030E080E890E0762F782309F0DE9A709141
:100520007A00072E00C000000A94E1F7DC9A70916F
:100530007A00072E00C000000A94E1F7990FCD99C8
:100540009F5FDE98DC9886952150310921F79D93B5
:100550004E175F07D9F60895809176009091770045
:100560009C012F5F3F4F30937700209376002091BE
:10057000730027FF02C0880F991F80FD2860209319
:100580006F00292F2695209370009695879580936C
:1005900071006BE670E08FE690E0B3CFFC019181D3
:1005A000911110C0A3E6B0E081918D9380E0AB364D
:1005B000B807D1F783E690E090938A008093890092
:1005C00088E008954481A42FB0E0913059F48C91D3
:1005D0008093630083E690E090938A008093890083
:1005E00081E008958281923011F48C930EC0582FCF
:1005F000577021E030E001C0220F5A95EAF793309E
:1006000031F420958C9128232C9380E00895943028
:1006100019F48C91282BF8CF953079F480937A00D7
:10062000442311F08AE001C082E09AB39A659ABB34
:100630009BB3957A892B8BBBE8CF963041F4DB9A3C
:100640008BB3857A8BBB8AB3857A8ABBDECF2BB31B
:100650002223D9F2973069F4CF0163E670E0029665
:1006600050DF83E690E090938A008093890084E0D5
:100670000895983031F480937900838180937800D5
:10068000C4CF248135813093770020937600993050
:1006900011F480E212C09B3011F480EA0EC0228176
:1006A000338130937500209374009A3011F480E404
:1006B00004C09C3009F0A9CF80EC809373008FEFC9
:1006C0000895EF92FF921F93CF93DF93162FEC01C3
:1006D0007C01E60EF11CCE15DF0529F03DDF80918F
:1006E0006E008993F8CF812FDF91CF911F91FF90FA
:1006F000EF900895DF92EF92FF920F931F93CF93A5
:10070000DF93EC017C01E60EF11C30E6D32ECE1512
:10071000DF0581F18991809372001EDF80916F0067
:100720008D2580936F0000E010E08091740090911F
:1007300075000817190758F76BE670E08FE690E030
:10074000E0DE80916E0090917200891308C0909154
:100750007900891721F0909178008913D8CF809182
:100760007A0090E025E0880F991F2A95E1F7080F9D
:10077000191FDBCF81E0DF91CF911F910F91FF9087
:10078000EF90DF9008959EE088E10FB6F894A89569
:1007900081BD0FBE91BD8ADDD09A80E0815041F0CD
:1007A000A895E7E8F3E13197F1F700C00000F6CF34
:0E07B000D0987894A8956CDCFDCFF894FFCF1C
:0207BE00FF5AE0
:00000001FF
