:100000000EC01DC01CC01BC01AC019C018C017C02C
:1000100016C015C014C013C012C011C010C01124E6
:100020001FBECFE5D1E0DEBFCDBF20E0A0E6B0E04F
:1000300001C01D92A236B207E1F787D0D5C0E0CF4C
:10004000FC019081862F809598239083ABECB0E0E3
:100050001197F1F700C00000908140FF02C0962B7D
:1000600001C098239083ABECB0E01197F1F700C08A
:100070000000908141FF02C0962B01C0982390831D
:10008000ABECB0E01197F1F700C00000908142FFA7
:1000900002C0962B01C098239083ABECB0E011977F
:1000A000F1F700C00000908143FF02C0962B01C011
:1000B00098239083ABECB0E01197F1F700C00000FB
:1000C000908144FF02C0962B01C098239083ABEC33
:1000D000B0E01197F1F700C00000908145FF02C029
:1000E000962B01C098239083ABECB0E01197F1F709
:1000F00000C00000908146FF02C0962B01C09823EB
:100100009083ABECB0E01197F1F700C0000047FF1F
:1001100003C08081862B02C09081892380838BEC71
:1001200090E00197F1F700C000008081682B6083A8
:10013000ABECB0E01197F1F700C000008BEC90E061
:100140000197F1F700C00000089580E886BD16BC55
:1001500092E097B986B987E886B9C29ABA9AC398E5
:10016000BB9A87EC90E00197F1F700C00000C39ABA
:1001700092E09A95F1F700C0369A3699FECF84B195
:100180008093610085B18093600087EC90E00197D7
:10019000F1F700C00000C39892E09A95F1F700C013
:1001A000369A3699FECF44B125B18091600090E037
:1001B000982F882730916100830F911D30E0322FF6
:1001C0002227240F311D821B930B853F91404CF257
:1001D00043E664E088E390E033DF8FE19EE401973B
:0C01E000F1F700C00000BDCFF894FFCF85
:00000001FF
