:1000000010C01FC01EC01DC01CC01BC01AC019C01C
:1000100018C017C016C015C014C013C012C011C03C
:1000200010C011241FBECFE5D1E0DEBFCDBF20E060
:10003000A0E6B0E001C01D92A236B207E1F787D07A
:10004000CDC0DECFFC019081862F809598239083D0
:10005000ABECB0E01197F1F700C00000908140FFD9
:1000600002C0962B01C098239083ABECB0E01197AF
:10007000F1F700C00000908141FF02C0962B01C043
:1000800098239083ABECB0E01197F1F700C000002B
:10009000908142FF02C0962B01C098239083ABEC65
:1000A000B0E01197F1F700C00000908143FF02C05B
:1000B000962B01C098239083ABECB0E01197F1F739
:1000C00000C00000908144FF02C0962B01C098231D
:1000D0009083ABECB0E01197F1F700C00000908185
:1000E00045FF02C0962B01C098239083ABECB0E093
:1000F0001197F1F700C00000908146FF02C0962BD7
:1001000001C098239083ABECB0E01197F1F700C0E9
:10011000000047FF03C08081862B02C090818923A5
:1001200080838BEC90E00197F1F700C000008081A4
:10013000682B6083ABECB0E01197F1F700C00000D2
:100140008BEC90E00197F1F700C00000089580E883
:1001500086BD16BC86B987E886B9D99AD19ADF9848
:10016000D79A8FEF87BB87EC90E00197F1F700C03B
:100170000000DF9A92E09A95F1F700C0369A36991E
:10018000FECF84B18093610085B18093600087ECDD
:1001900090E00197F1F700C00000DF9892E09A9597
:1001A000F1F700C0369A3699FECF44B125B180915F
:1001B000600090E0982F882730916100830F911D97
:1001C00030E0322F2227240F311D821B930B893CF4
:1001D000910514F0C09AC7CFC098C5CFF894FFCF4F
:00000001FF
