:1000000010C02AC029C028C027C026C025C024C0CF
:1000100023C022C021C020C01FC01EC01DC01CC0E4
:100020001BC011241FBECFE5D1E0DEBFCDBF10E065
:10003000A0E6B0E0EAE9F2E002C005900D92A23637
:10004000B107D9F720E0A2E6B0E001C01D92A436C6
:10005000B207E1F7CDD01FC1D3CF87B963E070E01D
:1000600080E090E0EFEFF3E0A7ECB0E01197F1F75C
:1000700000C00000B2E0BA95F1F700C0369A369998
:10008000FECF24B12093630025B120936200A7EC3A
:10009000B0E01197F1F700C00000B2E0BA95F1F7B7
:1000A00000C0369A3699FECFA4B145B120916200C6
:1000B00030E0322F222750916300250F311D50E090
:1000C000542F44274A0F511DDF01A41BB50B2A0FE3
:1000D0003B1F820F931F6150710931F663E070E09E
:1000E000B3D0CB010895FC019081862F8095982391
:1000F0009083ABECB0E01197F1F700C00000908165
:1001000040FF02C0962B01C098239083ABECB0E077
:100110001197F1F700C00000908141FF02C0962BBB
:1001200001C098239083ABECB0E01197F1F700C0C9
:100130000000908142FF02C0962B01C0982390835B
:10014000ABECB0E01197F1F700C00000908143FFE5
:1001500002C0962B01C098239083ABECB0E01197BE
:10016000F1F700C00000908144FF02C0962B01C04F
:1001700098239083ABECB0E01197F1F700C000003A
:10018000908145FF02C0962B01C098239083ABEC71
:10019000B0E01197F1F700C00000908146FF02C067
:1001A000962B01C098239083ABECB0E01197F1F748
:1001B00000C0000047FF03C08081862B02C09081F1
:1001C000892380838BEC90E00197F1F700C0000059
:1001D0008081682B6083ABECB0E01197F1F700C031
:1001E00000008BEC90E00197F1F700C0000008954B
:1001F00080E886BD16BC86B987E886B9D99AD19AB7
:100200008FEF87BBD79AD59AD49A4BB360E282E03E
:1002100024DF8B3C934014F0C29801C0C29A4BB3C8
:1002200060E180E01ADF813C934014F0C19801C086
:10023000C19A4BB360E883E010DF8B3C934014F02D
:10024000C098E3CFC09AE1CF97FB072E16F4009435
:1002500006D077FD08D00BD007FC05D03EF4909572
:1002600081959F4F0895709561957F4F0895AA1BC2
:10027000BB1B51E107C0AA1FBB1FA617B70710F091
:10028000A61BB70B881F991F5A95A9F780959095C3
:0A029000BC01CD010895F894FFCFE2
:02029A0003005F
:00000001FF
