:1000000010C01FC01EC01DC01CC01BC01AC019C01C
:1000100018C017C016C015C014C013C012C011C03C
:1000200010C011241FBECFE5D1E0DEBFCDBF20E060
:10003000A0E6B0E001C01D92A336B207E1F77ED082
:10004000A1C0DECFD898DB98D99ADC9A10926200D2
:1000500080916200843690F4D99ADC9A82E48A9581
:10006000F1F700C0D998DC988DE08A95F1F700008F
:10007000809162008F5F80936200EACF0895D898E4
:10008000DC98D99ADB9A10926200809162008436E3
:1000900090F4D99ADB9A82E48A95F1F700C0D99856
:1000A000DB988DE08A95F1F70000809162008F5F08
:1000B00080936200EACF0895D998DB98D89ADC9AA9
:1000C0001092620080916200843690F4D89ADC9A93
:1000D00082E48A95F1F700C0D898DC988DE08A9583
:1000E000F1F70000809162008F5F80936200EACF99
:1000F0000895D998DC98D89ADB9A10926200809182
:100100006200843690F4D89ADB9A82E48A95F1F7FB
:1001100000C0D898DB988DE08A95F1F700008091B7
:1001200062008F5F80936200EACF08958BDFC4DFA7
:10013000E0DFA5CFA4DFDDDFBFDF84CF80E886BDB1
:1001400016BCD998D19AD898D09ADC98D49ADB98D2
:10015000D39A10926100809161008A30D0F710929A
:1001600060008091610090916000981738F4DEDFA4
:10017000809160008F5F80936000F3CF8F5F8093EA
:080180006100E9CFF894FFCF04
:00000001FF
