:1000000010C01FC01EC01DC01CC01BC01AC019C01C
:1000100018C017C016C015C014C013C012C011C03C
:1000200010C011241FBECFE5D1E0DEBFCDBF20E060
:10003000A0E6B0E001C01D92A336B207E1F77AD086
:100040009DC0DECFD898DB98D99ADC9A10926200D6
:1000500080916200843688F4D99ADC9A80E58A958A
:10006000F1F7D998DC988DE08A95F1F7000080913E
:1000700062008F5F80936200EBCF0895D898DC9880
:10008000D99ADB9A1092620080916200843688F4DB
:10009000D99ADB9A80E58A95F1F7D998DB988DE0BB
:1000A0008A95F1F70000809162008F5F8093620073
:1000B000EBCF0895D998DB98D89ADC9A1092620019
:1000C00080916200843688F4D89ADC9A80E58A951B
:1000D000F1F7D898DC988DE08A95F1F700008091CF
:1000E00062008F5F80936200EBCF0895D998DC980F
:1000F000D89ADB9A1092620080916200843688F46C
:10010000D89ADB9A80E58A95F1F7D898DB988DE04C
:100110008A95F1F70000809162008F5F8093620002
:10012000EBCF08958FDFC6DFE1DFA8CFA7DFDEDFEB
:10013000C1DF88CF80E886BD16BCD998D19AD898FF
:10014000D09ADC98D49ADB98D39A1092610080916F
:1001500061008A30D0F71092600080916100909128
:100160006000981738F4DEDF809160008F5F809325
:100170006000F3CF8F5F80936100E9CFF894FFCFE9
:00000001FF
