:1000000010C017C016C015C014C013C012C011C054
:1000100010C00FC00EC00DC00CC00BC00AC009C07C
:1000200008C011241FBECFE5D1E0DEBFCDBF02D096
:100030002AC0E6CF8AB3876F8ABB8FEF87BBCB9985
:1000400013C0C29A2FE78AE196E021508040904089
:10005000E1F700C00000C2982FE78AE196E0215046
:1000600080409040E1F70CC0DA9A8FE493EC01975E
:10007000F1F700C00000DA988FE493EC0197F1F7F4
:0A00800000C00000DCCFF894FFCFB1
:00000001FF
