:1000000010C01FC01EC01DC01CC01BC01AC019C01C
:1000100018C017C016C015C014C013C012C011C03C
:1000200010C011241FBECFE5D1E0DEBFCDBF20E060
:10003000A0E6B0E001C01D92A336B207E1F76ED092
:1000400091C0DECF1092620080916200883C90F4F3
:10005000DB9AD99A85E88A95F1F70000DB98D99860
:100060008AE18A95F1F700C0809162008F5F8093EA
:100070006200EACF08951092620080916200883C8D
:1000800090F4DB9AD89A85E88A95F1F70000DB981E
:10009000D8988AE18A95F1F700C0809162008F5F5D
:1000A00080936200EACF089510926200809162000E
:1000B000883C90F4DA9AD99A85E88A95F1F700009D
:1000C000DA98D9988AE18A95F1F700C080916200A8
:1000D0008F5F80936200EACF089510926200809152
:1000E0006200883C90F4DA9AD89A85E88A95F1F70C
:1000F0000000DA98D8988AE18A95F1F700C08091DB
:1001000062008F5F80936200EACF08959BDFB3DFC8
:10011000E4DFCACFC9DFE1DFAEDF94CF80E886BD80
:1001200016BCD998D19AD898D09ADB98D39ADA98F5
:10013000D29A10926100809161008A30D0F71092BB
:1001400060008091610090916000981738F4DEDFC4
:10015000809160008F5F80936000F3CF8F5F80930A
:080160006100E9CFF894FFCF24
:00000001FF
