:1000000010C01FC01EC01DC01CC01BC01AC019C01C
:1000100018C017C016C015C014C013C012C011C03C
:1000200010C011241FBECFE5D1E0DEBFCDBF20E060
:10003000A0E6B0E001C01D92A336B207E1F7D2D02E
:100040002DC1DECF1092620080916200843680F470
:10005000DB9A8AE18A95F1F700C0DB9882E08A9505
:10006000F1F700C0809162008F5F80936200ECCF57
:1000700008951092620080916200843680F4D89ACC
:100080008AE18A95F1F700C0D89882E08A95F1F765
:1000900000C0809162008F5F80936200ECCF089572
:1000A0001092620080916200843680F4DA9A8AE1CC
:1000B0008A95F1F700C0DA9882E08A95F1F700C0DE
:1000C000809162008F5F80936200ECCF0895109260
:1000D000620080916200843680F4D99A8AE18A9520
:1000E000F1F700C0D99882E08A95F1F700C08091BD
:1000F00062008F5F80936200ECCF089510926200DF
:1001000080916200843690F4DB9AD99A8AE18A95CC
:10011000F1F700C0DB98D99882E08A95F1F700C02A
:10012000809162008F5F80936200EACF0895109201
:10013000620080916200843690F4DB9AD89A8AE15A
:100140008A95F1F700C0DB98D89882E08A95F1F79C
:1001500000C0809162008F5F80936200EACF0895B3
:100160001092620080916200843690F4DA9AD99AF3
:100170008AE18A95F1F700C0DA98D99882E08A95E9
:10018000F1F700C0809162008F5F80936200EACF38
:1001900008951092620080916200843690F4DA9A99
:1001A000D89A8AE18A95F1F700C0DA98D89882E067
:1001B0008A95F1F700C0809162008F5F80936200A2
:1001C000EACF08959BDF3EDFB2DF53DFE2DF68DF77
:1001D000C7DF7DCF7CDFC4DF63DFDBDF4ADFA7DF84
:1001E00031DF8CCF80E886BD16BCD998D19AD898DB
:1001F000D09ADB98D39ADA98D29ACAE0109261002A
:10020000809161008A3010F510926000909160003A
:1002100080916100981738F4D5DF809160008F5F7E
:1002200080936000F3CF1092600080916100909104
:100230006000981738F4CEDF809160008F5F809364
:100240006000F3CF8F5F80936100DACFC0936100CD
:1002500080916100882391F210926000909160007B
:1002600080916100981738F4ADDF809160008F5F56
:1002700080936000F3CF10926000809161009091B4
:100280006000981738F4A6DF809160008F5F80933C
:100290006000F3CF815080936100DACFF894FFCFF4
:00000001FF
