:1000000010C01FC01EC01DC01CC01BC01AC019C01C
:1000100018C017C016C015C014C013C012C011C03C
:1000200010C011241FBECFE5D1E0DEBFCDBF20E060
:10003000A0E6B0E001C01D92A336B207E1F76AD096
:100040008DC0DECF1092620080916200883C88F4FF
:10005000DB9AD99A80E58A95F1F7DB98D99885E003
:100060008A95F1F70000809162008F5F80936200B3
:10007000EBCF08951092620080916200883C88F472
:10008000DB9AD89A80E58A95F1F7DB98D89885E0D5
:100090008A95F1F70000809162008F5F8093620083
:1000A000EBCF08951092620080916200883C88F442
:1000B000DA9AD99A80E58A95F1F7DA98D99885E0A5
:1000C0008A95F1F70000809162008F5F8093620053
:1000D000EBCF08951092620080916200883C88F412
:1000E000DA9AD89A80E58A95F1F7DA98D89885E077
:1000F0008A95F1F70000809162008F5F8093620023
:10010000EBCF08959FDFB6DFE5DFCCCFCBDFE2DFBB
:10011000B1DF98CF80E886BD16BCD998D19AD8981F
:10012000D09ADB98D39ADA98D29A10926100809193
:1001300061008A30D0F71092600080916100909148
:100140006000981738F4E2DF809160008F5F809341
:100150006000F3CF8F5F80936100E9CFF894FFCF09
:00000001FF
