:1000000010C01FC01EC01DC01CC01BC01AC019C01C
:1000100018C017C016C015C014C013C012C011C03C
:1000200010C011241FBECFE5D1E0DEBFCDBF20E060
:10003000A0E6B0E001C01D92A336B207E1F766D09A
:10004000C1C0DECF1092620080916200883C80F4D3
:10005000DA9A85E88A95F1F70000DA988AE18A95BC
:10006000F1F700C0809162008F5F80936200ECCF57
:1000700008951092620080916200883C80F4D99AC1
:1000800085E88A95F1F70000D9988AE18A95F1F719
:1000900000C0809162008F5F80936200ECCF089572
:1000A0001092620080916200883C80F4DB9A85E8BF
:1000B0008A95F1F70000DB988AE18A95F1F700C094
:1000C000809162008F5F80936200ECCF0895109260
:1000D000620080916200883C80F4D89A85E88A9515
:1000E000F1F70000D8988AE18A95F1F700C0809175
:1000F00062008F5F80936200ECCF0895A3DFB9DFC9
:10010000CFDFE5CFE4DFCCDFB4DF9CCF80E886BD76
:1001100016BCD898D09AD998D19ADA98D29ADB9806
:10012000D39ACAE010926100809161008A3010F584
:10013000109260009091600080916100981738F4EF
:10014000DDDF809160008F5F80936000F3CF1092BD
:1001500060008091610090916000981738F4D2DFC0
:10016000809160008F5F80936000F3CF8F5F8093FA
:100170006100DACFC093610080916100882391F221
:10018000109260009091600080916100981738F49F
:10019000B5DF809160008F5F80936000F3CF109295
:1001A00060008091610090916000981738F4AADF98
:1001B000809160008F5F80936000F3CF81508093C7
:0801C0006100DACFF894FFCFD3
:00000001FF
